:020000040800F2
:1000000000400020E903000899060008A506000842
:10001000AD060008B5060008BD0600080000000097
:10002000000000000000000000000000C5060008FD
:10003000D106000800000000DD060008E9060008FF
:1000400035040008350400083504000835040008AC
:10005000350400083504000835040008350400089C
:10006000350400083504000835040008350400088C
:10007000350400083504000835040008350400087C
:10008000350400083504000835040008350400086C
:10009000350400083504000835040008350400085C
:1000A000350400083504000835040008350400084C
:1000B000350400083504000835040008350400083C
:1000C000350400083504000835040008350400082C
:1000D000350400083504000835040008350400081C
:1000E000350400083504000835040008350400080C
:1000F00035040008350400083504000835040008FC
:1001000035040008350400083504000835040008EB
:1001100035040008350400083504000835040008DB
:10012000350400080000000000000000000000008E
:0C01300000000000000000005FF808F173
:10013C0010402DE928409FE50030D4E5000053E342
:10014C000500001A1C309FE5000053E318009F15B2
:10015C0000F020130130A0E30030C4E51040BDE8EE
:10016C001EFF2FE150040020000000003C0100089D
:10017C0008402DE934309FE5000053E330009F1513
:10018C0030109F1500F020132C009FE5003090E5F7
:10019C00000053E30300000A20309FE5000053E306
:1001AC000FE0A01113FF2F110840BDE81EFF2FE137
:1001BC00000000003C010008540400205004002002
:1001CC000000000080B483B000AF03463960FB71BF
:1001DC0097F90730002B10DA4FF46D43CEF2000381
:1001EC00FA7902F00F02A2F104013A68D2B24FEA96
:1001FC000212D2B25B181A760DE04FF46143CEF2C4
:10020C00000397F907103A68D2B24FEA0212D2B241
:10021C005B1883F8002307F10C07BD4680BC7047C0
:10022C0080B582B000AF78607B6803F1FF326FF06D
:10023C007F439A4202D94FF001031DE04EF21003A6
:10024C00CEF200037A6802F1FF325A604FF0FF30B1
:10025C004FF00F01FFF7B6FF4EF21003CEF2000382
:10026C004FF000029A604EF21003CEF200034FF0F2
:10027C0007021A604FF00003184607F10807BD4645
:10028C0080BD00BF80B584B000AF4FF0000000F01F
:10029C00CDF84FF0010000F0C9F84FF000004FF01E
:1002AC00000100F051F93B46184600F0F3FB7A6868
:1002BC0044F6D353C1F26203A3FB02134FEA931328
:1002CC001846FFF7ADFF40F27043C2F200034FF047
:1002DC0001021A704FF0000000F0BAF90346012B2E
:1002EC0026D14FF0010000F0D7F84FF47A7000F0EF
:1002FC0045F84FF0010000F0E9F840F27043C2F20B
:10030C0000031B7803F10103DAB240F27043C2F22E
:10031C0000031A7040F27043C2F200031B78032BE7
:10032C0006D140F27043C2F200034FF000021A7083
:10033C0040F27043C2F200031B78022B08D14FF03D
:10034C00000000F0DDF84FF0640000F017F8C1E792
:10035C0040F27043C2F200031B78012B08D14FF01E
:10036C00000000F0CDF84FF0C80000F007F8B1E73E
:10037C004FF0000000F0AAF8ACE700BF80B483B0E7
:10038C0000AF78607A6840F26C43C2F200031A60E6
:10039C0000BF40F26C43C2F200031B68002BF8D183
:1003AC0007F10C07BD4680BC704700BF80B400AF9E
:1003BC0040F26C43C2F200031B68002B0BD040F2DE
:1003CC006C43C2F200031B6803F1FF3240F26C4332
:1003DC00C2F200031A60BD4680BC7047002100F0D9
:1003EC0004B80C4B5B58435004310B480B4B421870
:1003FC009A42FFF4F6AF0A4A00F003B8002342F821
:10040C00043B084B9A42FFF4F9AF00F005FDFFF7EF
:10041C0039FF7047881200080000002050040020AB
:10042C005004002074040020FFF7FEBF80B584B098
:10043C0000AF0346FB71FA7941F22423C0F60003A6
:10044C0053F8223018464FF0010100F039FCFA79CC
:10045C0041F22023C0F6000333F81230BB604FF09A
:10046C0001033B734FF00003BB734FF00003FB73AE
:10047C004FF003037B73FA7940F20003C2F20003DE
:10048C0053F8222007F108031046194600F03AFAF7
:10049C0007F11007BD4680BD80B483B000AF0346A2
:1004AC00FB71FA7940F20003C2F2000353F82220E8
:1004BC00F97941F22023C0F6000333F8113013838D
:1004CC0007F10C07BD4680BC704700BF80B483B0F9
:1004DC0000AF0346FB71FA7940F20003C2F200034D
:1004EC0053F82220F97941F22023C0F6000333F8A7
:1004FC001130538307F10C07BD4680BC704700BF19
:10050C0080B483B000AF0346FB71FA7940F200036C
:10051C00C2F2000353F82220F97940F20003C2F230
:10052C00000353F821309B8A99B2F87941F22023C9
:10053C00C0F6000333F810304B409BB2938207F1A6
:10054C000C07BD4680BC704780B588B000AF024632
:10055C000B46FA71BB71FA7941F23023C0F60003F5
:10056C0053F8223018464FF0010100F0A9FB4FF070
:10057C0001004FF0010100F0CDFB4FF000033B7781
:10058C004FF00003FB77FA7941F22C23C0F60003FD
:10059C0033F81230BB61FA7940F20803C2F200035F
:1005AC0053F8222007F118031046194600F0AAF957
:1005BC00BB79012B47D1FA7941F23823C0F60003FD
:1005CC0033F81230DAB2F97941F23C23C0F6000369
:1005DC0033F81130DBB21046194600F0C5FBFA793E
:1005EC0041F23423C0F6000333F812303B614FF074
:1005FC0000033B75FB79002B03D04FF008037B7590
:10060C0002E04FF00C037B754FF00103BB7507F153
:10061C001003184600F0DAF8FA7941F24023C0F6DC
:10062C00000333F81230DBB23B734FF00F037B73D4
:10063C004FF00F03BB734FF00103FB7307F10C0377
:10064C00184600F051F807F12007BD4680BD00BFE9
:10065C0080B582B000AF0346FB71FA7940F2080313
:10066C00C2F2000353F82220F97941F22C23C0F690
:10067C00000333F811301046194600F0EBF903462D
:10068C00184607F10807BD4680BD00BF80B400AF17
:10069C00BD4680BC704700BF80B400AFFEE700BF12
:1006AC0080B400AFFEE700BF80B400AFFEE700BF30
:1006BC0080B400AFFEE700BF80B400AFBD4680BC85
:1006CC00704700BF80B400AFBD4680BC704700BF10
:1006DC0080B400AFBD4680BC704700BF80B500AF92
:1006EC00FFF764FE80BD00BF80B485B000AF7860BA
:1006FC004FF00003FB734FF00003BB734FF00F037D
:10070C007B737B68DB78002B45D04FF46D43CEF2C6
:10071C000003DB686FEA030303F4E0634FEA13237F
:10072C00FB73FB7BC3F10403BB737A7BFB7B42FA49
:10073C0003F37B737B685B781A46BB7B02FA03F38B
:10074C00FB737B689A787B7B1340DAB2FB7B134399
:10075C00FB73FB7B4FEA0313FB734FF46143CEF245
:10076C0000037A6812789B18FA7B83F800234FF405
:10077C006143CEF200037A6812784FEA5212D2B279
:10078C007968097801F01F014FF0010000FA01F1BE
:10079C0043F8221014E04FF46143CEF200037A6860
:1007AC0012784FEA5212D2B27968097801F01F011F
:1007BC004FF0010000FA01F102F1200243F822107F
:1007CC0007F11407BD4680BC704700BF80B485B0EC
:1007DC0000AF78604FF00003FB604FF48063C4F20D
:1007EC000103FB607B689B79002B78D04FF480630E
:1007FC00C4F201034FF48062C4F2010211687A68FA
:10080C0012686FEA02020A401A604FF48063C4F265
:10081C0001034FF48062C4F2010251687A681268D5
:10082C006FEA02020A405A607B681B79FA68D31897
:10083C00FB60FB68FA6811687A6812680A431A60F0
:10084C004FF48063C4F201034FF48062C4F20102DE
:10085C0091687A6812686FEA02020A409A604FF453
:10086C008063C4F201034FF48062C4F20102D168C8
:10087C007A6812686FEA02020A40DA607B685B7978
:10088C00102B1AD14FF48063C4F201034FF4806231
:10089C00C4F2010291687A6812680A439A604FF4B4
:1008AC008063C4F201034FF48062C4F20102D16888
:1008BC007A6812680A43DA601FE04FF48063C4F26E
:1008CC000103FB607B685B79FA68D318FB60FB68FB
:1008DC00FA6811687A6812680A431A600DE07B683E
:1008EC001B79FA68D318FB60FB68FA6811687A68A0
:1008FC0012686FEA02020A401A6007F11407BD463B
:10090C0080BC704780B487B000AF786039604FF01E
:10091C0000037B614FF000033B614FF00003FB6071
:10092C004FF000037B618CE07B694FF0010202FA0F
:10093C0003F33B613B681A683B691340FB60FA6840
:10094C003B699A4279D17B681A687B694FEA430309
:10095C004FF0030101FA03F36FEA03031A407B68BB
:10096C001A607B681A683B681B7919467B694FEAE9
:10097C00430301FA03F31A437B681A603B681B7943
:10098C00012B03D03B681B79022B3AD17B689A6808
:10099C007B694FEA43034FF0030101FA03F36FEA5B
:1009AC0003031A407B689A607B689A683B685B79A2
:1009BC0019467B694FEA430301FA03F31A437B6838
:1009CC009A607B689B889AB27B699BB24FF001015D
:1009DC0001FA03F39BB26FEA03039BB213409AB282
:1009EC007B689A807B689B889AB23B689B79194696
:1009FC007B699BB201FA03F39BB213439AB27B68F7
:100A0C009A807B68DA687B699BB24FEA43034FF0AC
:100A1C00030101FA03F36FEA03031A407B68DA60FF
:100A2C007B68DA683B68DB7919467B694FEA4303DC
:100A3C0001FA03F31A437B68DA607B6903F1010363
:100A4C007B617B690F2B7FF66FAF07F11C07BD46EF
:100A5C0080BC704780B485B000AF78600B467B805B
:100A6C004FF00003FB737B681B8A9AB27B881340A0
:100A7C009BB2002B03D04FF00103FB7302E04FF04D
:100A8C000003FB73FB7B184607F11407BD4680BCC3
:100A9C00704700BF80B489B000AF78604FF000039E
:100AAC00FB614FF00003BB614FF000037B614FF023
:100ABC0000033B614FF00003FB604FF00003BB6091
:100ACC004FF46053C4F202039B6803F00C03FB6108
:100ADC00FB690C2B00F2868001A252F823F000BFB8
:100AEC00210B0008F10B0008F10B0008F10B0008BA
:100AFC004B0B0008F10B0008F10B0008F10B000880
:100B0C00590B0008F10B0008F10B0008F10B000861
:100B1C00670B00084FF46053C4F202035B6803F4E4
:100B2C0060434FEA5333BB60BB6803F101034FF4DE
:100B3C00004202FA03F31A467B681A6067E07A688F
:100B4C004FF41053C0F2F403136060E07A684FF472
:100B5C009053C0F27A03136059E04FF46053C4F21F
:100B6C0002039B6803F47013BB614FF46053C4F22F
:100B7C0002039B6803F440037B61BB694FEA934219
:100B8C0040F20C03C2F200039B5CDBB2BB617B69DD
:100B9C004FEA935303F101037B614FF46053C4F2AA
:100BAC0002039B6803F480333B613B69002B0CD13F
:100BBC00BA694FF41053C0F2F40303FB02F27B69E1
:100BCC00B2FBF3F27B681A6021E0BA694FF49053E0
:100BDC00C0F27A0303FB02F27B69B2FBF3F27B688F
:100BEC001A6014E04FF46053C4F202035B6803F420
:100BFC0060434FEA5333BB60BB6803F101034FF40E
:100C0C00004202FA03F31A467B681A6000BF4FF4E5
:100C1C006053C4F202039B6803F0F003FB61FB69B1
:100C2C004FEA1313FB6140F21803C2F20003FA6996
:100C3C009B181B78DBB2FB607B681A68FB6822FA96
:100C4C0003F27B685A604FF46053C4F202039B6852
:100C5C0003F4E063FB61FB694FEA1323FB6140F291
:100C6C001803C2F20003FA699B181B78DBB2FB6015
:100C7C007B685A68FB6822FA03F27B689A604FF42F
:100C8C006053C4F202039B6803F46053FB61FB697D
:100C9C004FEAD323FB6140F21803C2F20003FA6956
:100CAC009B181B78DBB2FB607B685A68FB6822FAE6
:100CBC0003F27B68DA6007F12407BD4680BC7047FD
:100CCC0080B483B000AF78600B46FB70FB78002BD0
:100CDC000CD04FF46053C4F202034FF46052C4F2D0
:100CEC000202D1697A680A43DA610DE04FF460536D
:100CFC00C4F202034FF46052C4F20202D1697A6862
:100D0C006FEA02020A40DA6107F10C07BD4680BCAB
:100D1C00704700BF80B483B000AF78600B46FB70A7
:100D2C00FB78002B0CD04FF46053C4F202034FF449
:100D3C006052C4F20202116A7A680A431A620DE028
:100D4C004FF46053C4F202034FF46052C4F2020237
:100D5C00116A7A686FEA02020A401A6207F10C07FC
:100D6C00BD4680BC704700BF90B484B000AF024653
:100D7C000B46FA71BB714FF00003FB60BB7903F0BB
:100D8C0003034FEA83034FF00F0202FA03F3FB60F5
:100D9C004FF00003C4F20103BA794FEA9202D2B2C7
:100DAC0010464FF00002C4F20102B9794FEA9101EA
:100DBC00C9B201F1020152F82110FA686FEA02027D
:100DCC00114000F1020243F822104FF00003C4F26C
:100DDC000103BA794FEA9202D2B210464FF00002E8
:100DEC00C4F20102B9794FEA9101C9B201F10201D1
:100DFC0052F82110FC79BA7902F003024FEA820210
:100E0C0004FA02F2114300F1020243F8221007F136
:100E1C001007BD4690BC704780B500AF4FF46053CF
:100E2C00C4F202034FF46052C4F20202126842F49C
:100E3C0080721A604FF46052C4F202024FF4605395
:100E4C00C4F2020399684CF20C03C8F6FF030B4082
:100E5C0093604FF46053C4F202034FF46052C4F237
:100E6C000202126822F0885222F001121A604FF42A
:100E7C006053C4F202034FF46052C4F202021268CF
:100E8C0022F480221A604FF46053C4F202034FF430
:100E9C006052C4F20202926822F47D029A604FF40E
:100EAC006053C4F202034FF00002DA6000F008F85D
:100EBC004FF46D43CEF200034FF000629A6080BD98
:100ECC0080B483B000AF4FF000037B604FF00003A1
:100EDC003B604FF46053C4F202034FF46052C4F20F
:100EEC000202126842F001021A604FF46053C4F21D
:100EFC0002031B6803F002033B603B68002B03D129
:100F0C007B68B3F5A06FF0D14FF46053C4F20203C9
:100F1C001B6803F00203002B03D04FF001033B606E
:100F2C0002E04FF000033B603B68012B40F0AF80C8
:100F3C004FF47053C4F202034FF47052C4F2020225
:100F4C00126842F004021A604FF47053C4F20203A8
:100F5C004FF47052C4F20202126842F002021A609C
:100F6C004FF47053C4F202034FF47052C4F20202F5
:100F7C00126842F001021A604FF46053C4F202038B
:100F8C004FF46052C4F20202526A42F080525A622A
:100F9C004FF4E043C4F200034FF400621A6000BF48
:100FAC004FF4E043C4F200035B6803F01003002B22
:100FBC00F6D14FF46053C4F202034FF46052C4F202
:100FCC00020292689A604FF46053C4F202034FF429
:100FDC006052C4F2020292689A604FF46053C4F2F9
:100FEC0002034FF46052C4F2020292689A604FF40A
:100FFC006053C4F202034FF46052C4F202029268CE
:10100C0022F47D029A604FF46053C4F202034FF451
:10101C006052C4F20202926842F488029A604FF461
:10102C006053C4F202034FF46052C4F2020212681D
:10103C0042F080721A6000BF4FF46053C4F2020396
:10104C001B6803F00073002BF6D04FF46053C4F20E
:10105C0002034FF46052C4F20202926822F00302BF
:10106C009A604FF46053C4F202034FF46052C4F21E
:10107C000202926842F003029A6000BF4FF4605380
:10108C00C4F202039B6803F00C030C2BF6D107F19E
:10109C000C07BD4680BC7047E4C09FE5F0412DE9CC
:1010AC0000409CE548C194E500005CE353CF84020A
:1010BC0004509CE548C184051F0055E310D04DE257
:1010CC000060A0E1150000DAB8009FE5000050E3D5
:1010DC000100001A0000E0E3180000EA190EA0E37A
:1010EC000C108DE508208DE504308DE500F020E333
:1010FC0000C050E20C109DE508209DE504309DE5F4
:10110C00F3FFFF0A485194E50000A0E304008CE5CE
:10111C0000508CE548C184E588018CE58C018CE598
:10112C00000056E304409CE50700001A023084E2FC
:10113C00014084E203118CE704408CE50000A0E33D
:10114C0010D08DE2F041BDE81EFF2FE10100A0E3BD
:10115C001004A0E104818CE0020056E388719CE548
:10116C00083188E58C319C05007087E10000830113
:10117C000850A0E1882088E588718CE58C018C05ED
:10118C00E9FFFFEA481200080000000038402DE992
:10119C0030509FE530409FE5044065E04441B0E1AC
:1011AC00045185100400000A043035E50FE0A0E17D
:1011BC0013FF2FE1014054E2FAFFFF1A250000EB68
:1011CC003840BDE81EFF2FE1841200088812000889
:1011DC0008402DE910309FE5000053E30C009F15EB
:1011EC000300001B0840BDE81EFF2FE100000000BB
:1011FC00981100080010A0E10000A0E308402DE9C0
:10120C000020A0E10030A0E1A2FFFFEB0840BDE808
:10121C001EFF2FE10002000104000000040000008A
:10122C0001000000010000000100000000000000AF
:10123C000000000006000000430000002800002011
:10124C000DC0A0E1F8DF2DE904B04CE228D04BE250
:10125C00F06F9DE81EFF2FE10DC0A0E1F8DF2DE936
:10126C0004B04CE228D04BE2F06F9DE81EFF2FE15A
:08127C00DC1100087C010008F0
:041284003C01000821
:10128800000802400008024000000240030406086B
:101298000C101820300000000000000001020304B8
:1012A80001020304060708090000000014030020D7
:1012B8007C030020E4030020000000000000000080
:1012C8000000000000000000000000000000000016
:1012D80000000000000000000000000044120008A8
:1012E80000000000000000000000000000000000F6
:1012F80000000000000000000000000000000000E6
:1013080000000000000000000000000000000000D5
:1013180000000000000000000000000000000000C5
:1013280000000000000000000000000000000000B5
:1013380000000000000000000000000000000000A5
:101348000000000000000000000000000000000095
:1013580001000000000000000E33CDAB34126DE632
:10136800ECDE05000B00000000000000000000009B
:101378000000000000000000000000000000000065
:101388000000000000000000000000000000000055
:101398000000000000000000000000000000000045
:1013A8000000000000000000000000000000000035
:04000005080003E903
:00000001FF
